{
  "transactions": [
    {
      "hash": "0x76b2287c62903d3ce0ea61663f063b167e2b0452be4cb370a1d1e79e928c56c3",
      "transactionType": "CALL",
      "contractName": null,
      "contractAddress": "0x1adb499e9f3484ab727d075504edfe9363d5da18",
      "function": "mint(address,uint256)",
      "arguments": [
        "0xAC5DDdf779629Add7C8f3E7e9D605D9b090C778C",
        "5000000000000000000"
      ],
      "transaction": {
        "from": "0xac5dddf779629add7c8f3e7e9d605d9b090c778c",
        "to": "0x1adb499e9f3484ab727d075504edfe9363d5da18",
        "gas": "0x1712a",
        "value": "0x0",
        "input": "0x40c10f19000000000000000000000000ac5dddf779629add7c8f3e7e9d605d9b090c778c0000000000000000000000000000000000000000000000004563918244f40000",
        "nonce": "0x31",
        "chainId": "0xaa36a7"
      },
      "additionalContracts": [],
      "isFixedGasLimit": false
    }
  ],
  "receipts": [
    {
      "status": "0x1",
      "cumulativeGasUsed": "0xbf958c",
      "logs": [
        {
          "address": "0x1adb499e9f3484ab727d075504edfe9363d5da18",
          "topics": [
            "0xddf252ad1be2c89b69c2b068fc378daa952ba7f163c4a11628f55a4df523b3ef",
            "0x0000000000000000000000000000000000000000000000000000000000000000",
            "0x000000000000000000000000ac5dddf779629add7c8f3e7e9d605d9b090c778c"
          ],
          "data": "0x0000000000000000000000000000000000000000000000004563918244f40000",
          "blockHash": "0x622523ac7bee44ea4a19c6bccaa94f85755e5ea7a5eb047a15405e4839699853",
          "blockNumber": "0x66bb53",
          "transactionHash": "0x76b2287c62903d3ce0ea61663f063b167e2b0452be4cb370a1d1e79e928c56c3",
          "transactionIndex": "0x6a",
          "logIndex": "0x77",
          "removed": false
        }
      ],
      "logsBloom": "0x00000000008000000000000000000000200000000000000000000000000000000000000000000000000000000000000000000000000000000800000000000000000000000000000000000008000000000000000000000000000000000000800000000000020000000000000000000800000000000000000000000010000000000000000000000001000200000000000000000000000000000000000000000000000000000000000000000000000000000000000000000000000000000000000000000002000000000000000000000000000000000000000000000000000020000000000000000000000000000000000000000000000000000000000000000000",
      "type": "0x2",
      "transactionHash": "0x76b2287c62903d3ce0ea61663f063b167e2b0452be4cb370a1d1e79e928c56c3",
      "transactionIndex": "0x6a",
      "blockHash": "0x622523ac7bee44ea4a19c6bccaa94f85755e5ea7a5eb047a15405e4839699853",
      "blockNumber": "0x66bb53",
      "gasUsed": "0x10b45",
      "effectiveGasPrice": "0x3ecac0729",
      "from": "0xac5dddf779629add7c8f3e7e9d605d9b090c778c",
      "to": "0x1adb499e9f3484ab727d075504edfe9363d5da18",
      "contractAddress": null
    }
  ],
  "libraries": [],
  "pending": [],
  "returns": {},
  "timestamp": 1726913969,
  "chain": 11155111,
  "commit": "a0c9125"
}