{
  "transactions": [
    {
      "hash": "0x11dea92678b471d927885052bb41069cfd1359e2cc25b592527c043354973cc9",
      "transactionType": "CREATE",
      "contractName": null,
      "contractAddress": "0x2b559e0083d01d73f5af33b6b4a31af6b62873e8",
      "function": null,
      "arguments": null,
      "transaction": {
        "from": "0xac5dddf779629add7c8f3e7e9d605d9b090c778c",
        "gas": "0xa55eb",
        "value": "0x0",
        "input": "0x608060405234801561001057600080fd5b506040518060400160405280600b81526020016a2430b232b930aa37b5b2b760a91b8152506040518060400160405280600381526020016224222960e91b81525081600390816100609190610116565b50600461006d8282610116565b5050506101d5565b634e487b7160e01b600052604160045260246000fd5b600181811c9082168061009f57607f821691505b6020821081036100bf57634e487b7160e01b600052602260045260246000fd5b50919050565b601f821115610111576000816000526020600020601f850160051c810160208610156100ee5750805b601f850160051c820191505b8181101561010d578281556001016100fa565b5050505b505050565b81516001600160401b0381111561012f5761012f610075565b6101438161013d845461008b565b846100c5565b602080601f83116001811461017857600084156101605750858301515b600019600386901b1c1916600185901b17855561010d565b600085815260208120601f198616915b828110156101a757888601518255948401946001909101908401610188565b50858210156101c55787850151600019600388901b60f8161c191681555b5050505050600190811b01905550565b610785806101e46000396000f3fe608060405234801561001057600080fd5b506004361061009e5760003560e01c806340c10f191161006657806340c10f191461011857806370a082311461012d57806395d89b4114610156578063a9059cbb1461015e578063dd62ed3e1461017157600080fd5b806306fdde03146100a3578063095ea7b3146100c157806318160ddd146100e457806323b872dd146100f6578063313ce56714610109575b600080fd5b6100ab6101aa565b6040516100b891906105ce565b60405180910390f35b6100d46100cf366004610639565b61023c565b60405190151581526020016100b8565b6002545b6040519081526020016100b8565b6100d4610104366004610663565b610256565b604051601281526020016100b8565b61012b610126366004610639565b61027a565b005b6100e861013b36600461069f565b6001600160a01b031660009081526020819052604090205490565b6100ab610288565b6100d461016c366004610639565b610297565b6100e861017f3660046106c1565b6001600160a01b03918216600090815260016020908152604080832093909416825291909152205490565b6060600380546101b9906106f4565b80601f01602080910402602001604051908101604052809291908181526020018280546101e5906106f4565b80156102325780601f1061020757610100808354040283529160200191610232565b820191906000526020600020905b81548152906001019060200180831161021557829003601f168201915b5050505050905090565b60003361024a8185856102a5565b60019150505b92915050565b6000336102648582856102b7565b61026f85858561033a565b506001949350505050565b6102848282610399565b5050565b6060600480546101b9906106f4565b60003361024a81858561033a565b6102b283838360016103cf565b505050565b6001600160a01b038381166000908152600160209081526040808320938616835292905220546000198114610334578181101561032557604051637dc7a0d960e11b81526001600160a01b038416600482015260248101829052604481018390526064015b60405180910390fd5b610334848484840360006103cf565b50505050565b6001600160a01b03831661036457604051634b637e8f60e11b81526000600482015260240161031c565b6001600160a01b03821661038e5760405163ec442f0560e01b81526000600482015260240161031c565b6102b28383836104a4565b6001600160a01b0382166103c35760405163ec442f0560e01b81526000600482015260240161031c565b610284600083836104a4565b6001600160a01b0384166103f95760405163e602df0560e01b81526000600482015260240161031c565b6001600160a01b03831661042357604051634a1406b160e11b81526000600482015260240161031c565b6001600160a01b038085166000908152600160209081526040808320938716835292905220829055801561033457826001600160a01b0316846001600160a01b03167f8c5be1e5ebec7d5bd14f71427d1e84f3dd0314c0f7b2291e5b200ac8c7c3b9258460405161049691815260200190565b60405180910390a350505050565b6001600160a01b0383166104cf5780600260008282546104c4919061072e565b909155506105419050565b6001600160a01b038316600090815260208190526040902054818110156105225760405163391434e360e21b81526001600160a01b0385166004820152602481018290526044810183905260640161031c565b6001600160a01b03841660009081526020819052604090209082900390555b6001600160a01b03821661055d5760028054829003905561057c565b6001600160a01b03821660009081526020819052604090208054820190555b816001600160a01b0316836001600160a01b03167fddf252ad1be2c89b69c2b068fc378daa952ba7f163c4a11628f55a4df523b3ef836040516105c191815260200190565b60405180910390a3505050565b60006020808352835180602085015260005b818110156105fc578581018301518582016040015282016105e0565b506000604082860101526040601f19601f8301168501019250505092915050565b80356001600160a01b038116811461063457600080fd5b919050565b6000806040838503121561064c57600080fd5b6106558361061d565b946020939093013593505050565b60008060006060848603121561067857600080fd5b6106818461061d565b925061068f6020850161061d565b9150604084013590509250925092565b6000602082840312156106b157600080fd5b6106ba8261061d565b9392505050565b600080604083850312156106d457600080fd5b6106dd8361061d565b91506106eb6020840161061d565b90509250929050565b600181811c9082168061070857607f821691505b60208210810361072857634e487b7160e01b600052602260045260246000fd5b50919050565b8082018082111561025057634e487b7160e01b600052601160045260246000fdfea264697066735822122018f9c2daf9f06c60e145181a0d76730bc63f968de8ceccc068b79a09f4e4afda64736f6c63430008180033",
        "nonce": "0x2b",
        "chainId": "0xaa36a7"
      },
      "additionalContracts": [],
      "isFixedGasLimit": false
    },
    {
      "hash": "0xdbcb52422bd758ab19f97430a0dd0601d7a1f88918570e9b40141b77096149d6",
      "transactionType": "CALL",
      "contractName": null,
      "contractAddress": "0x2b559e0083d01d73f5af33b6b4a31af6b62873e8",
      "function": "mint(address,uint256)",
      "arguments": [
        "0xAC5DDdf779629Add7C8f3E7e9D605D9b090C778C",
        "5000000000000000000"
      ],
      "transaction": {
        "from": "0xac5dddf779629add7c8f3e7e9d605d9b090c778c",
        "to": "0x2b559e0083d01d73f5af33b6b4a31af6b62873e8",
        "gas": "0x1712a",
        "value": "0x0",
        "input": "0x40c10f19000000000000000000000000ac5dddf779629add7c8f3e7e9d605d9b090c778c0000000000000000000000000000000000000000000000004563918244f40000",
        "nonce": "0x2c",
        "chainId": "0xaa36a7"
      },
      "additionalContracts": [],
      "isFixedGasLimit": false
    }
  ],
  "receipts": [
    {
      "status": "0x1",
      "cumulativeGasUsed": "0xd2a1ff",
      "logs": [],
      "logsBloom": "0x00000000000000000000000000000000000000000000000000000000000000000000000000000000000000000000000000000000000000000000000000000000000000000000000000000000000000000000000000000000000000000000000000000000000000000000000000000000000000000000000000000000000000000000000000000000000000000000000000000000000000000000000000000000000000000000000000000000000000000000000000000000000000000000000000000000000000000000000000000000000000000000000000000000000000000000000000000000000000000000000000000000000000000000000000000000",
      "type": "0x2",
      "transactionHash": "0x11dea92678b471d927885052bb41069cfd1359e2cc25b592527c043354973cc9",
      "transactionIndex": "0x43",
      "blockHash": "0x535156e16c437081e278b8d6b2d6c199a322907d041855e113de3e0a4b9de11f",
      "blockNumber": "0x66ba89",
      "gasUsed": "0x7f3eb",
      "effectiveGasPrice": "0x781f4b1f0",
      "from": "0xac5dddf779629add7c8f3e7e9d605d9b090c778c",
      "to": null,
      "contractAddress": "0x2b559e0083d01d73f5af33b6b4a31af6b62873e8"
    },
    {
      "status": "0x1",
      "cumulativeGasUsed": "0xd3ad44",
      "logs": [
        {
          "address": "0x2b559e0083d01d73f5af33b6b4a31af6b62873e8",
          "topics": [
            "0xddf252ad1be2c89b69c2b068fc378daa952ba7f163c4a11628f55a4df523b3ef",
            "0x0000000000000000000000000000000000000000000000000000000000000000",
            "0x000000000000000000000000ac5dddf779629add7c8f3e7e9d605d9b090c778c"
          ],
          "data": "0x0000000000000000000000000000000000000000000000004563918244f40000",
          "blockHash": "0x535156e16c437081e278b8d6b2d6c199a322907d041855e113de3e0a4b9de11f",
          "blockNumber": "0x66ba89",
          "transactionHash": "0xdbcb52422bd758ab19f97430a0dd0601d7a1f88918570e9b40141b77096149d6",
          "transactionIndex": "0x44",
          "logIndex": "0x8e",
          "removed": false
        }
      ],
      "logsBloom": "0x00000000008000000000000000000000000000000000000000000000000000000000080000000000000000000000000000000000000000000800000000000000000000000000000000000008000000000000000000000000000000000000800000000000020000000000000000000800000000000000000000000010000000000000000000000000000000000000000000000000000000000000000000000800000000000000100000000000000000000000000000000000000000000000000000000002000000000000000000000000000000000000000000000000000020000000000000000000000000000000000000000000000000000000000000000000",
      "type": "0x2",
      "transactionHash": "0xdbcb52422bd758ab19f97430a0dd0601d7a1f88918570e9b40141b77096149d6",
      "transactionIndex": "0x44",
      "blockHash": "0x535156e16c437081e278b8d6b2d6c199a322907d041855e113de3e0a4b9de11f",
      "blockNumber": "0x66ba89",
      "gasUsed": "0x10b45",
      "effectiveGasPrice": "0x781f4b1f0",
      "from": "0xac5dddf779629add7c8f3e7e9d605d9b090c778c",
      "to": "0x2b559e0083d01d73f5af33b6b4a31af6b62873e8",
      "contractAddress": null
    }
  ],
  "libraries": [],
  "pending": [],
  "returns": {},
  "timestamp": 1726911074,
  "chain": 11155111,
  "commit": "a0c9125"
}